:020000040000fa
:080000000002040000000000f2
:020000040000fa
:04000800a80200004a
:020000040000fa
:04000c00a802000046
:020000040000fa
:04001000a802000042
:020000040000fa
:04001400a80200003e
:020000040000fa
:04001800a80200003a
:020000040000fa
:04001c00a802000036
:020000040000fa
:04002000a802000032
:020000040000fa
:04002400a80200002e
:020000040000fa
:04002800a80200002a
:020000040000fa
:04002c00a802000026
:020000040000fa
:04003000a802000022
:020000040000fa
:04003400282300007d
:020000040000fa
:04003800a80200001a
:020000040000fa
:04003c00a802000016
:020000040000fa
:04004000a802000012
:020000040000fa
:04004400a80200000e
:020000040000fa
:04004800a80200000a
:020000040000fa
:04004c00a802000006
:020000040000fa
:04005000a802000002
:020000040000fa
:04005400a8020000fe
:020000040000fa
:040058006c24000014
:020000040000fa
:04005c00a8020000f6
:020000040000fa
:04006000a8020000f2
:020000040000fa
:04006400a8020000ee
:020000040000fa
:04006800a8020000ea
:020000040000fa
:04006c00a8020000e6
:020000040000fa
:04007000a8020000e2
:020000040000fa
:04007400be1f0000ab
:020000040000fa
:040078003a11000039
:020000040000fa
:04007c00a8020000d6
:020000040000fa
:04008000a8020000d2
:020000040000fa
:04008400a8020000ce
:020000040000fa
:04008800a8020000ca
:020000040000fa
:04008c00a8020000c6
:020000040000fa
:04009000a8020000c2
:020000040000fa
:04009400a8020000be
:020000040000fa
:04009800a8020000ba
:020000040000fa
:04009c00a8020000b6
:020000040000fa
:0400a000a8020000b2
:020000040000fa
:0400a400a8020000ae
:020000040000fa
:0400a800a8020000aa
:020000040000fa
:0400ac00a8020000a6
:020000040000fa
:0400b000a8020000a2
:020000040000fa
:0400b400a80200009e
:020000040000fa
:0400b800a80200009a
:020000040000fa
:0400bc00a802000096
:020000040000fa
:0400c000a802000092
:020000040000fa
:0400c400a80200008e
:020000040000fa
:0400c800a80200008a
:020000040000fa
:0400cc00a802000086
:020000040000fa
:0400d000a802000082
:020000040000fa
:0400d400a80200007e
:020000040000fa
:0400d800a80200007a
:020000040000fa
:0400dc00a802000076
:020000040000fa
:0400e000a802000072
:020000040000fa
:0400e400a80200006e
:020000040000fa
:0400e800a80200006a
:020000040000fa
:0400ec00a802000066
:020000040000fa
:0400f000a802000062
:020000040000fa
:0400f400a80200005e
:020000040000fa
:0400f800a80200005a
:020000040000fa
:0400fc00a802000056
:020000040000fa
:04010000a802000051
:020000040000fa
:04010400a80200004d
:020000040000fa
:04010800a802000049
:020000040000fa
:04010c00a802000045
:020000040000fa
:04011000a802000041
:020000040000fa
:04011400a80200003d
:020000040000fa
:04011800a802000039
:020000040000fa
:04011c00a802000035
:020000040000fa
:04012000a802000031
:020000040000fa
:04012400a80200002d
:020000040000fa
:04012800a802000029
:020000040000fa
:04012c00a802000025
:020000040000fa
:04013000a802000021
:020000040000fa
:04013400a80200001d
:020000040000fa
:04013800a802000019
:020000040000fa
:04013c00a802000015
:020000040000fa
:04014000a802000011
:020000040000fa
:04014400a80200000d
:020000040000fa
:04014800a802000009
:020000040000fa
:04014c00a802000005
:020000040000fa
:04015000a802000001
:020000040000fa
:04015400a8020000fd
:020000040000fa
:04015800a8020000f9
:020000040000fa
:04015c00a8020000f5
:020000040000fa
:04020800a802000048
:020000040000fa
:04020c00a802000044
:020000040000fa
:04021000a802000040
:020000040000fa
:04021400a80200003c
:020000040000fa
:04021800a802000038
:020000040000fa
:04021c00a802000034
:020000040000fa
:04022000a802000030
:020000040000fa
:04022400a80200002c
:020000040000fa
:04022800a802000028
:020000040000fa
:04022c00a802000024
:020000040000fa
:04023000a802000020
:020000040000fa
:04023400a80200001c
:020000040000fa
:04023800a802000018
:020000040000fa
:04023c00a802000014
:020000040000fa
:04024000a802000010
:020000040000fa
:04024400a80200000c
:020000040000fa
:04024800a802000008
:020000040000fa
:04024c00a802000004
:020000040000fa
:04025000a802000000
:020000040000fa
:04025400a8020000fc
:020000040000fa
:04025800a8020000f8
:020000040000fa
:04025c00a8020000f4
:020000040000fa
:04026000a8020000f0
:020000040000fa
:04026400a8020000ec
:020000040000fa
:04026800a8020000e8
:020000040000fa
:04026c00a8020000e4
:020000040000fa
:04027000a8020000e0
:020000040000fa
:04027400a8020000dc
:020000040000fa
:04027800a8020000d8
:020000040000fa
:04027c00a8020000d4
:020000040000fa
:04028000a8020000d0
:020000040000fa
:04028400a8020000cc
:020000040000fa
:04028800a8020000c8
:020000040000fa
:04028c00a8020000c4
:020000040000fa
:04029000a8020000c0
:020000040000fa
:04029400a8020000bc
:020000040000fa
:04029800a8020000b8
:020000040000fa
:04029c00a8020000b4
:020000040000fa
:0402a000a8020000b0
:020000040000fa
:0402a400a8020000ac
:020000040000fa
:0402a800a8020000a8
:020000040000fa
:0402ac00a8020000a4
:020000040000fa
:0402b000a8020000a0
:020000040000fa
:0402b400a80200009c
:020000040000fa
:0402b800a802000098
:020000040000fa
:0402bc00a802000094
:020000040000fa
:0402c000a802000090
:020000040000fa
:0402c400a80200008c
:020000040000fa
:0402c800a802000088
:020000040000fa
:0402cc00a802000084
:020000040000fa
:0402d000a802000080
:020000040000fa
:0402d400a80200007c
:020000040000fa
:0402d800a802000078
:020000040000fa
:0402dc00a802000074
:020000040000fa
:0402e000a802000070
:020000040000fa
:0402e400a80200006c
:020000040000fa
:0402e800a802000068
:020000040000fa
:0402ec00a802000064
:020000040000fa
:0402f000a802000060
:020000040000fa
:0402f400a80200005c
:020000040000fa
:0402f800a802000058
:020000040000fa
:0402fc00a802000054
:020000040000fa
:04030000a80200004f
:020000040000fa
:04030400a80200004b
:020000040000fa
:04030800a802000047
:020000040000fa
:04030c00a802000043
:020000040000fa
:04031000a80200003f
:020000040000fa
:04031400a80200003b
:020000040000fa
:04031800a802000037
:020000040000fa
:04031c00a802000033
:020000040000fa
:04032000a80200002f
:020000040000fa
:04032400a80200002b
:020000040000fa
:04032800a802000027
:020000040000fa
:04032c00a802000023
:020000040000fa
:04033000a80200001f
:020000040000fa
:04033400a80200001b
:020000040000fa
:04033800a802000017
:020000040000fa
:04033c00a802000013
:020000040000fa
:04034000a80200000f
:020000040000fa
:04034400a80200000b
:020000040000fa
:04034800a802000007
:020000040000fa
:04034c00a802000003
:020000040000fa
:04035000a8020000ff
:020000040000fa
:04035400a8020000fb
:020000040000fa
:04035800a8020000f7
:020000040000fa
:04035c00a8020000f3
:020000040000fa
:100400008fb920000edf20000e01880000000000e0
:10041000000020000000e000020032000001200087
:10042000200288000c0007002001220001002000ab
:1004300011000700000020000000e0000200320070
:100440000000020000000000601202000000000036
:100450000040da000000fe004440a900a022200075
:100460000000e0000300320000002000a00188002e
:100470004440a80000000600910188008000780038
:100480000000eb0015003700e280400032a0b4000d
:100490009101ba00e280400032a0b4009102ba009b
:1004a000e280400032a0b4000002eb00472bde00e7
:1004b000f507b200602ce10004003a000059eb009f
:1004c0008301e900fdff3e00040037006128e100e0
:1004d000010032000082eb000b00070011c3ba00dc
:1004e0001101ba000604e00003003a000200e00037
:1004f000e5ff3a0000000600f607b200960188000a
:1005000082007800f5ff37003159ba008301e90015
:100510000c0032002159ba008301e90008003200c2
:100520000400e00003003a00e280400032a0b40082
:10053000f5ff370011d9ba008301e900faff3a004c
:100540008100e800e180400032a0b4000000060015
:100550000040da000000fe000a00fa00e20f50003e
:1005600020003e00b05c8000e10f50000600320029
:100570008023200045232000232320000423200083
:100580000000e00004003a00802220004522200004
:100590002322200004222000060028001403630008
:1005a00003003a000608780000002800140a7000d2
:1005b00013a8a30001003a0013a0a00002007800d5
:1005c000050037001388a300feff32003102fb0054
:1005d000840a78000000e9000000e000f9ff3a001a
:1005e0000800370033002000b3bf9f00c0bf9f004a
:1005f000d1bf9f00e2bf9f006a80570070040700d0
:100600006fb99700020078000080fa000000060031
:10061000839f68000100e00002003d0060001000c0
:10062000e08018000300e00002003d0060011100be
:10063000e0811900050007004f00e00002003b00c8
:1006400060001000e0801800000006006022b80082
:10065000060220000000d0008180d2000482d20077
:100660008582d2000000a0000202520083825a005c
:10067000030031000202420083824a000000a10010
:100680000603e900f3ff3a0000000600889fbe0061
:100690008a9fbe008c1f78000006eb00e00f500020
:1006a000e08f5800e00f5900e08f590007003d002f
:1006b0006044b8006055b8000000540081805c00c0
:1006c00002015d0083815d001c002000e00f5200ec
:1006d000e08f5a00e00f5b00e08f5b0007003d00f9
:1006e0006044b8006055b8000402540085825c0084
:1006f00006035d0087835d000c00a2000c0007006c
:100700000c00e000060032006022b8006033b80040
:100710000000520081805a0002015b0083815b006f
:100720004f0678004f05be004f04be0000000600d3
:10073000889fbe008a9fbe008c9fbe000404b80044
:100740000506b8008904460060854e000606b8001c
:100750000a054600e0854e000706b8008b054600f6
:10076000040eb800890446000a854e00e0854d005d
:10077000050eb8000a0546008b854e00060eb8002f
:100780008b0546000416b8000a0546008b854e000e
:100790000516b8008b054600041eb8008b05460000
:1007a0000800be000a01be004f06be004f05be0095
:1007b0004f04be00000006008001780002003700f0
:1007c000b15978000201e9000200e000fcff3a00a4
:1007d000000006000c00fa00889fbe0000047800ac
:1007e000f0ff2700d0bf9f008004eb0099bf9f005f
:1007f00088bf9f00a8bf9f00200c2000b0bf9f00b3
:1008000078815700cfb09700708057001000070024
:100810000fb89700094878008fb8970008805000fb
:100820004f04be000080fa0000000600d0019000d6
:10083000028151004240a9000300340010017800f9
:10084000014978000208e800010078000000060075
:100850002f02b000889fbe008a9fbe008c9fbe0002
:100860008e1f780080067800d1af9f0092b79f005e
:100870000007eb0044033700dfa897008100e80081
:10088000d1af9f0051c2b300814f500003003a0026
:100890005fa897000006eb0011003700bd00900034
:1008a0000000fb000168a300070032000e01780081
:1008b000800078000d007800dcff07000000e000f9
:1008c00005003a00300337008d0078003a03070036
:1008d000e10f40002c0332000e07e8002a03370026
:1008e0008000780030417800d3c2b300834f5100bc
:1008f0000c00320007003c00edc15100834f510055
:100900000a003200ebc14100834f51000d003a0054
:100910000800370003c3b300834f510009003a00b9
:10092000060037000c30a000edff37000c00a000df
:10093000ebff37000c10a000e9ff37000c20a000ef
:10094000e7ff37000c18a300010032000c00a100e3
:100950000c38a300010032000c20a1000200fb00b3
:100960000003b100e90f50000c003e0001017800c7
:100970000000eb006a00b900b201fb000303b10004
:1009800000804100820078009201fb000303b10067
:10099000e98f5100f7ff3600080037000000eb0038
:1009a000a3c2b300834f510004003a001fb1970067
:1009b0004200780092b79f008100e8008001eb00c0
:1009c000a3b79f00e2c2b300914f11000c003a00a0
:1009d0000ce0a00064415100d14f1100030032002f
:1009e0000101780003027800090037001fb2970068
:1009f000c402780094b79f00a5b79f008100e8006b
:100a000001017800090037006a22b9000482410020
:100a100082007800b201fb000303b100e98f5100ae
:100a2000f9ff3600a4b79f00f5ff3700b240780009
:100a3000d2af9f00c3c6b30083cf50002500320061
:100a40000f003c0032c6b30082cf5000a00032003d
:100a500004003c000104e000d00232006b41510070
:100a60000f00370042c6b30082cf5000170032009b
:100a70006541410082cf5000b3003a0013003700b7
:100a800032c7b30082cf50001f00320007003c0085
:100a90006441510082cf5000140032000241e8004e
:100aa00082cf5000a8003a001300370052c7b300ad
:100ab00082cf5000ab0032006341410082cf500032
:100ac000a1003a00a1d79f000d003700a1d79f00d9
:100ad000a6003700010120000c48a30001003200ed
:100ae000010028000c867000d0ff3700a1d79f00be
:100af0000c60a0009d003700a1d79f000c50a00003
:100b00000c70a00099003700a1d79f009fb39700f9
:100b1000c700780097b79f00b1b79f000100e000c1
:100b200002003a0029ac2000b9b79f003fb19700fe
:100b30008000eb00010037008100e800e2c178008e
:100b40000304e000fcff3a00c1b79f002fb59700f7
:100b50000a00e00005003200cfb597008b0f55006a
:100b6000020031008a007800c1b79f00cfb0970023
:100b70000004eb00810f500001003600010450001a
:100b8000680666002b003a00110037003d00900017
:100b90000068a300070032000e0178000102200067
:100ba0000d00780021ff07000000e00006003a0079
:100bb000060037008d007800000220007e0207004a
:100bc000e10f4000010032000e07e8000804e900d0
:100bd0000800e000edff3a000084eb00150037004c
:100be0003d0090000068a300090032000800780072
:100bf000b000fb00000478000e0178000d007800c2
:100c00000aff07000000e00008003a000f0037006c
:100c1000880078003100fb00010478008d00780026
:100c200065020700e10f4000080032000e07e800ef
:100c300006003700acb79f00080678003fb4970065
:100c4000cfb497005fb59700efb597000900780023
:100c50008004e9000000e000e1ff3a00b8b79f001f
:100c6000c9b79f00dab79f00ebb79f000c0478006c
:100c70002fb697000c00e00043023200110037004d
:100c80003d0090000068a300070032000e017800cc
:100c9000010220000d007800e4fe07000000e000e3
:100ca00006003a00060037008d00780000022000a0
:100cb00041020700e10f4000010032000e07e8008a
:100cc0000804e9000800e000edff3a002e023700ba
:100cd0009fb297004504780095b79f00cfc4de000f
:100ce000614db9000802be000a03be004822de00c2
:100cf000c828dd0004827000a4d79f000c48a30020
:100d0000090032000404e00007003200e14f420015
:100d100005003200b4d79f00c8d79f0022002000f2
:100d2000c2b79f0003003700b8d79f001300200010
:100d3000c3b79f0024fd2f000f0242000402e80009
:100d4000b4b79f0081ff3700a1d79f0025fd2f007a
:100d500085824700b5b79f0016002000c6b79f00e8
:100d60007aff3700a1d79f000c0cb3008c007800ed
:100d7000010cb20032003a000c00e00005003d001a
:100d80009fb097004105be004104be0091b79f008f
:100d9000080037000c48a3000b0032001fb2970078
:100da0004401be0094b79f000204be004fcdde0098
:100db0008a057800b8b79f00c9b79f00dab79f00cf
:100dc000ebb79f00090037009fb49700c900780077
:100dd00099b79f00610ab900612bb900b4b79f00b1
:100de000c5b79f00d6b79f00e7b79f003fb49700f5
:100df000cfb497005fb59700efb59700e00f5400b0
:100e0000e08f5c00e00f5d00e08f5d0022003d00a0
:100e10003c00b3006022b8006033b8000804520000
:100e200089845a000a055b008b855b00b8b79f0078
:100e3000c9b79f00dab79f00ebb79f0016003700d5
:100e40000c00e00004003d001fb497004803be0002
:100e50004802be00050037000c48a3000500320020
:100e60001fb497004802be006033b80098b79f00d7
:100e7000050037009fb49700c900780099b79f001c
:100e8000610ab8006033b800b4b79f00c5b79f00cf
:100e9000d6b79f00e7b79f00afb297000500e0000c
:100ea0000d003a0016002000a6b79f003fb497003f
:100eb000cfb497005fb59700efb59700e00f5400ef
:100ec000e08f5c00e00f5d00e08f5d00020032000b
:100ed0008004eb00a9b79f000c0578000a0cb20053
:100ee0008ab79f0001042000810f550034003200b2
:100ef00003003c000a00e000080032004800370010
:100f0000010820008fb59700818f55001400320032
:100f1000010c2000818f550041003a0022ad2000d5
:100f200011c0b3003202be003203be003fb49700ce
:100f3000cfb497005fb59700efb597000440e1008c
:100f400005c8e10006d0e10007d8e1003300390010
:100f50008140e800f4cf5000f2ff3a002f00370044
:100f600011c0b30004012000050020006033b80068
:100f70003fb49700cfb497005fb59700efb59700e7
:100f80000440e10005c8e10006d0e10007d8e10017
:100f900022003900490020000402d0008582d200de
:100fa0000683d2008783d2008904e900faff3a0061
:100fb0008140e800f0cf5000edff3a001700370005
:100fc00011c0b30084002000050020006033b80089
:100fd0003fb49700cfb497005fb59700efb5970087
:100fe0000440e10005c8e10006d0e10007d8e100b7
:100ff0000a003900390020000402d0008582d200a6
:101000000683d2008783d2008904e900faff3a0000
:101010008140e800f5cf5000edff3a00a1d79f00d6
:101020002fd597008a00fb00afb597008b8f50003b
:1010300002003d00abd79f00040037002fb197009e
:10104000810f510001003d00a1b79f000000e000aa
:1010500003003200e3006600010032000000e900f6
:101060000ce8a30006003200afb19700830f5000d8
:101070000200340003005000010037000000eb00c4
:101080002fd297008400fb008002eb00f5af9f0099
:10109000810f50000200340081005000f1af9f002a
:1010a0000c28a3003c003200610166000c18a3006c
:1010b0000f0032003d0090000068a30006003200df
:1010c000b10220000200e000010032008180e8004f
:1010d0000e0178000d003700b00220000200e00091
:1010e000010032000080e8008d0078000e0037001b
:1010f0000200e000100032003d0090000068a300f4
:10110000070032000e017800010220000d00780077
:10111000c6fd07000000e00006003a0006003700a8
:101120008d0078000002200023010700e10f40003d
:10113000010032000e07e8007fab97000600e000d8
:1011400052003200060478003d0090000068a300c1
:10115000070032000e017800010320000d00780026
:10116000b2fd07000000e00006003a00060037006c
:101170008d007800000320000f010700e10f400000
:10118000010032000e07e8000804e900eeff3a0013
:10119000f8af9f003d003700ffab97000700e0006d
:1011a000160032000c38a30014003a00070478003f
:1011b0003d0090000068a300070032000e01780097
:1011c000010220000d00780098fd07000000e000fb
:1011d00006003a00060037008d007800000220006b
:1011e000f5000700e10f4000010032000e07e800a3
:1011f0000804e900eeff3a00f8af9f0061016600c5
:101200000c18a3000f0032003d0090000068a300fe
:1012100006003200b10220000200e00001003200ae
:101220008180e8000e0178000d003700b002200038
:101230000200e000010032000080e8008d0078002c
:101240000e0037000200e000100032003d00900068
:101250000068a300070032000e01780001022000a0
:101260000d00780071fd07000000e00006003a0064
:10127000060037008d00780000022000ce00070035
:10128000e10f4000010032000e07e8002fb4970084
:101290000800e900c204dd00c9af9f006301b90086
:1012a00002057800baaf9f004300dd00a1ac20002a
:1012b00081004000e1af9f0098003700afb5970074
:1012c0008b05e900abb79f00000420008fb09700aa
:1012d000808f50006800320003003c000100e000f5
:1012e0000800320073003700000820000fb197009b
:1012f000800f51004c003200000c2000800f510084
:101300006c003a000c00e0001e003d00efa99700c1
:101310003304be002305be000802be000a03be005f
:101320003fb09700cfb097005fb19700efb1970043
:10133000c4010700a0d79f000000fb00cf80de00a3
:101340006109b9000802be000a03be00cffc070015
:101350003fb29700cfb297005fb39700efb397000b
:101360000002520081825a0002035b0083835b000b
:10137000b4b79f00c5b79f00d6b79f00e7b79f00df
:10138000250037000c48a3001a0032003fb2970036
:10139000cfb297006fab97003604be002605be00a3
:1013a0000801be000400be00f4b79f0085bf9f0087
:1013b000a6fc0700a0d79f000000fb00cf80de0046
:1013c0000801be00000107007fb297008fba9700a6
:1013d0000002520081825a000404be006055b80029
:1013e000b8b79f00c9b79f00dab79f00ebb79f005f
:1013f00009003700efac9700190178003fb597005e
:10140000110009000285d800a20020001100090087
:101410000280d800a1d79f00afd597000b43b00042
:10142000abd79f002300370010ab20000c58a3005f
:101430000100320000aa20003fb29700cfb297000f
:101440005fb39700efb39700cfa897008100e90042
:10145000050033008703d1000683d3008582d300c3
:101460000482d300f9ff37006f02620060427a0005
:10147000a4d79f000f0037003fb09700cfb0970070
:101480005fb19700efb197003faa97000402e9000f
:10149000050033008301d1000281d3008180d30095
:1014a0000080d300f9ff3700674060000043b000c0
:1014b000a0d79f00bd009000afd297000500fb00b1
:1014c0000168a300070032000e0178008000780058
:1014d0000d007800d5fc07000000e00005003a0090
:1014e000050037008d00780033000700e10f400051
:1014f000010032000e07e8004fab97006403530071
:10150000c6af9f00bfab9700e3835300b7af9f0008
:101510006fac970068045400e8af9f00afb4970029
:101520000900e00065ff3a000c38a3001600320005
:101530007fad97000a00e000130034000a04780031
:101540003d0090000068a300070032000e01780003
:10155000010220000d007800b4fc07000000e0004c
:1015600006003a00060037008d00780000022000d7
:1015700011000700e10f4000010032000e07e800f3
:101580000804e900eeff3a00dfad97001b40780049
:10159000a0d79f000004e000b7fc3a000e007800de
:1015a0004f0778004f06be004f05be004f04be0037
:1015b0002f02b10000000600889fbe0001047800e1
:1015c000b80090008084eb000118a3003a003200bc
:1015d000180190000198a30002003a000200e00008
:1015e00035003a000190a000310498008004780092
:1015f000f90fb2000200e00002003a00280090005b
:10160000000c7800ea8f540005003a000178a3002e
:1016100003003a0088007800d0002000e6ff0700b1
:1016200018009000d8009000810f50000b0032008d
:101630000000e800100498001800780009487800bd
:10164000000ce80011c0b30000b920000148780088
:10165000ea8f540018003a0005003700880078002f
:101660000940780017000700800478001200370056
:10167000380090000088a3000f003200180190008d
:10168000a800900048009000b3fb0700980090006d
:10169000810f500004003200380090000003b300b6
:1016a000300498008084eb000000eb0010049800e8
:1016b00028009000000c7800090078004f04be005c
:1016c000000006000200fa00889fbe00a0ff9f00f5
:1016d00001047800380090000068a30033003a004d
:1016e000e200600005003a000003b30030049800f7
:1016f000110498000080eb002e003700d804900001
:101700000900e00006003a0012002000e6805700c1
:101710004800900090fb0700190498002300370050
:10172000a80090000100e00008003a0031b9200054
:1017300021049800010c7800210020005104980039
:10174000110498000030a0003004980018019000a7
:10175000a8009000480090007ffb07002800900040
:101760008080eb0011049800aff8970001487800e2
:10177000000ce8002ff89700ea4f50000b003a00e9
:10178000380090000088a300080032001801900083
:10179000a8009000480090006ffb07000000eb00dd
:1017a00010049800a8009000010c7800aff8970092
:1017b0000100fb004f04be000080fa00000006009c
:1017c00000c0da0000000600020ab900001bb900e0
:1017d0000200b800810042008100430000000600c2
:1017e000889fbe008a9fbe0030044200b0844a0039
:1017f00030054b0090854b006000b1000898be009a
:101800000a90be000440e10005c8e10006d0e100f6
:1018100007d8e10002003100680040001008e8002d
:101820004f05be004f04be0000000600889fbe00aa
:101830008a9fbe003004be002005be00041854007c
:1018400005985c0006185d0007985d0011002000f7
:101850000440e10005c8e10006d0e10007d8e1003e
:10186000010039008000eb00108810004f05be0019
:101870004f04be00000006001200fa00889fbe0060
:101880008a9fbe008c9fbe00e0b79f00f1b79f000b
:1018900082bf9f0093bf9f000605be000404be00e8
:1018a0000000eb00d0b79f00c0b79f00b0b79f000b
:1018b000a0b79f0090b79f000006eb005fb19700b4
:1018c000cfb09700820141003fb097000200e000d6
:1018d00004003d00370007007e805700c0ff07006e
:1018e00003003700330007007e805700cfff07005a
:1018f000dfb697000d00e0000c0035006fb29700d6
:10190000ffb297000fbb97009fbb9700100020000d
:10191000010020006011b800000272008182720094
:1019200002037300838373001b0007000c06e800aa
:1019300001042000810f5600e0ff3a000d00e00096
:1019400004003d000802be000a03be007e8057006e
:10195000a3ff07005fa897000000e00005003a0021
:101960001fb29700afb297003fb39700cfb3970075
:10197000090007006fb09700ffb097000fb99700fc
:101980009fb997004f06be004f05be004f04be0032
:101990000080fa00000006000100070000000600b9
:1019a000a4b79f00b5b79f00c6b79f00d7b79f00e9
:1019b000000006004f09de0082817100b3b79f006e
:1019c0004f01de008180400082807000a1b79f003f
:1019d0008fb097004f09de00000040000200700049
:1019e00090b79f007fa897004f01de0081804000e4
:1019f0008280700081b79f000d0007004f3ade0023
:101a00000000400004007000f0af9f0008000700d5
:101a10000402420085824a0006034b0087834b0084
:101a2000dfff07000802be000a03be000000060038
:101a30002fb29700bfb297004fb39700dfb3970064
:101a400000000600881f780018002000881f78001a
:101a500089ff07008f87e9004f0478000000060027
:101a6000801feb0084ff07008f87e900000006005d
:101a7000889fbe008a9fbe00e00f5000e08f580094
:101a8000e00f5900e08f59000c003d006044b800a1
:101a90006055b8000000540081805c0002015d00c8
:101aa00083815d00180020001500070008003d003c
:101ab000180007000004eb00050037000004eb00ed
:101ac0000f00070002003d00120007001800200070
:101ad000dcff07000800e000060032006022b800ca
:101ae0006033b8000000520081805a0002015b00a0
:101af00083815b004f05be004f04be00000006005e
:101b0000e00f5200e08f5a00e00f5b00e08f5b00b7
:101b1000000006006044b8006055b800040254009c
:101b200085825c0006035d0087835d00000006007f
:101b3000889fbe008a9fbe008c1f7800e00f500077
:101b4000e08f5800e00f5900e08f59000d003d0074
:101b50006044b8006055b8000000540081805c000b
:101b600002015d0083815d001c0020000820e1006f
:101b700009a8e1000ab0e1000bb8e1000d003d004a
:101b8000080037000006eb00e00f5200e08f5a001b
:101b9000e00f5b00e08f5b0006003d006044b80092
:101ba0006055b8000402540085825c0006035d00a5
:101bb00087835d00aaff07000c00e00006003200ea
:101bc0006022b8006033b8000000520081805a00e3
:101bd00002015b0083815b004f0678004f05be0069
:081be0004f04be0000000600e6
:020000040000fa
:101be80070080000660800005c0800005208000049
:101bf8003408000016080000a80700004b07000082
:101c0800fb060000b5060000790600004306000048
:101c180014060000e9050000c30500009f05000048
:101c28007f05000061050000440500002a0500004a
:101c380010050000f8040000e1040000cb040000d7
:101c4800b6040000a10400008d040000790400001f
:101c58006604000053040000410400002f04000043
:101c68001e0400000d040000fc030000eb0300004c
:101c7800db030000cb030000bc030000ac03000042
:101c88009d0300008e030000800300007103000024
:101c98006303000055030000480300003a030000f6
:101ca8002d030000200300001303000007030000b9
:101cb800fa020000ee020000e2020000d602000074
:101cc800cb020000bf020000b4020000a90200001d
:101cd8009e02000093020000890200007e020000bc
:101ce800740200006a020000600200005602000050
:101cf8004d020000430200003a02000031020000d9
:101d0800280200001f020000160200000e02000058
:101d180005020000fd010000f5010000ed010000d2
:101d2800e5010000dd010000d6010000ce01000041
:101d3800c7010000c0010000b8010000b1010000a7
:101d4800aa010000a40100009d0100009601000006
:101d58009001000089010000830100007d0100005e
:101d680077010000710100006b01000065010000af
:101d78005e01000068010000720100007c010000a3
:101d880090010000a4010000da0100000802000030
:101d980030020000550200007602000094020000a4
:101da800b0020000ca020000e1020000f8020000d0
:101db8000d03000021030000330300004603000068
:101dc8005603000066030000760300008403000049
:101dd80092030000a0030000ad030000ba03000056
:101de800c6030000d1030000dd030000e803000083
:101df800f3030000fd0300000704000011040000c5
:101e08001a040000230400002d040000360400001a
:101e18003e040000460400004f0400005704000080
:101e28005e040000660400006e04000075040000f3
:101e38007c040000830400008a0400009104000070
:101e4800970400009d040000a4040000aa040000f8
:101e5800b0040000b6040000bc040000c204000086
:101e6800c8040000ce040000d3040000d804000019
:101e7800de040000e3040000e8040000ed040000b4
:101e8800f3040000f8040000fc0400000105000051
:101e9800060500000a0500000f05000014050000f3
:101ea800180500001d050000220500002605000099
:101eb8002a0500002e050000320500003705000045
:101ec8003b0500003f0500004205000047050000f3
:101ed8004b0500004e0500005305000056050000a4
:101ee8005a0500005e050000610500006505000058
:101ef800680500006c0500006f0500007305000010
:101f0800034500006c610000707300006564000008
:101f180020540000696d0000652000003d2000008d
:101f280025750000206d0000730d00000a000000f8
:101f3800245000004d5400004b32000032300000a5
:101f48002c350000303000002a320000420d00001d
:101f58000a000000244400002c56000056560000d9
:101f6800562c000050500000505000005050000007
:101f78002c2c00002c54000054540000542c000059
:101f88002c2c00002c2a0000414100000d0a000002
:101f9800000000004d4d00004138000034350000bd
:101fa80032200000656e0000206c000069670000a8
:101fb8006e6500000a0000004572000072650000ae
:101fc800757200002064000065200000636f000047
:101fd8006d2000006176000065630000204d000060
:101fe8004d41000038340000353200000a0000007e
:101ff800245000004d5400004b31000036310000e1
:102008002c3000002a320000380d00000a000000c1
:10201800245000004d5400004b32000032300000c4
:102028002c350000303000002a320000420d00003c
:042038000a0000009a
:020000040000fa
:10203c000000fa006bc0a900c642a900c042a9006a
:10204c002c83a8000080fa00000006000000fa00b3
:10205c006ba0a900c662a900c062a9002ca3a800ad
:10206c000080fa00000006000000fa006900a900d8
:10207c00c6c2a900c0c2a9000080fa000000060078
:10208c000000fa006980a900c9c2a8002d43a8006d
:10209c000080fa00000006000000fa00006a280028
:1020ac0011002000430907009460a9000080fa0089
:1020bc00000006000400fa00000f78002147980089
:1020cc003700fc001e00780010407800804078003b
:1020dc002e4090000080fb00120020000010dd005c
:1020ec000040780000c07000804078001e0078002e
:1020fc00014878000000fc000080fa000000060097
:10210c000400fa00000f7800214798003700fc000b
:10211c001e00780010407800804078002e4090001f
:10212c000080fb00120020000010dd000040780051
:10213c0000c0ea0000c06000804078001e007800fb
:10214c00014878000000fc000080fa000000060046
:10215c000200fa00004f7800114798009e80fb00a7
:10216c001e4090000080fb00120020000010dd00db
:10217c00808060001e4090000080fb000088de0024
:10218c00004078000080fa00000006000000fa0011
:10219c0000088000801f780050f82800801f78000d
:1021ac006090200088f90700e48757001f0907009a
:1021bc0060902000d8090700c169ef0007020700f2
:1021cc00b000200001002000fa0807000080fa008f
:1021dc00000006000000fa000080eb006019880087
:1021ec00203a80000080a0000090a00000a0a10078
:1021fc00203a88009cff0700a1ff070093ff07000f
:10220c008bff07005807a9009400a9005b07a900e1
:10221c009680a9008220a900700580000000a00013
:10222c000010a1000020a100700588005f090700c4
:10223c008109070024050700cb08070010090700d7
:10224c002c090700ba060700830607008908070057
:10225c000080fa00000006000000fa008c69ef0014
:10226c000080fa00000006003600f800809fbe00d7
:10227c00829fbe00849fbe00869fbe000000fa00b5
:10228c008680a900f4ff07000080fa004f03be000f
:10229c004f02be004f01be004f00be003600f900d9
:1022ac00004006000000fa00504c800010407800fe
:1022bc000004e00007003200504c80009040780091
:1022cc008100fb00211188000000e800504c8800c0
:1022dc00050037009580a9002342a90021c0b30056
:1022ec00709b200086ff07000080fa0000000600ab
:1022fc000e00fa00cd0807006000b800008fbe0089
:10230c00c0c9bf000004e00002003200c069ef0049
:10231c004d0037000060fe004047a900c1c9bf0056
:10232c000004e00007003200209c2000b1010700ef
:10233c00aa010700b0002000010020009d08070042
:10234c003b0037006a004700aa0107009d01070007
:10235c002008200001002000960807005e00900075
:10236c00ee009000dd000700200798008cc9bf002c
:10237c000040e8008ce9b700104e8000214e800030
:10238c000901070030079800410798003e009000b3
:10239c00ce009000f1030700008fbe001e01be00ae
:1023ac000080eb008080eb00800f5100818f590082
:1023bc00020032001e00be00c5020700b7c9bf00f4
:1023cc008040eb0062ff07000004e0000b003a00c5
:1023dc00e7020700c04d88002e00900000407800f6
:1023ec00bae9b7001e01be00e24d8800f34d88002b
:1023fc008040eb00709b20002eff0700c19820004e
:10240c009140780040f828001040780080cf5000b0
:10241c0004003a0011c0b300709b200025ff070098
:10242c000300370011c0b300709b200034ff07007d
:10243c00c1c9bf000080fb000000e9004f00de00b6
:10244c0000407800c1e9b7000080fa0000000600e7
:10245c000400fa00008fbe007408070010c0b3001f
:10246c00c0e9b7001e0090006a00b90000017800b6
:10247c001e0078006000b9000000780000014100e7
:10248c009e007800a00020000008b8000101410067
:10249c0082007800470807000100370000000000a8
:1024ac00c0c9bf000004e000fcff3a000080fa0045
:1024bc00000006000400fa00881f78000000eb0002
:1024cc00000f780043ff07000060fe007401070056
:1024dc00007d200001002000ddff07006000b80037
:1024ec00ea05070074010700c169ef00c00d200068
:1024fc0001002000e5050700000520000100200078
:10250c00d3ff0700c044200001002000df050700b6
:10251c000005200001002000cdff0700808920006d
:10252c0001002000d9050700000520000100200053
:10253c00c7ff07006000b800d4050700401f20004b
:10254c0001002000c2ff0700401f200001002000f6
:10255c00bfff070022012000c1f928006090200075
:10256c0092f8070060902000eb080700401f200045
:10257c0001002000b6ff0700f2012000e1fa28005c
:10258c008093200089f8070014010700b000200098
:10259c000100200007080700770107009680a800bb
:1025ac0000000000b7c9bf008040eb00e8fe070048
:1025bc00e14f500045003a00c04d8000000178000a
:1025cc0041c0b300b09320006d0207000084fb00f3
:1025dc00e04d8000f14d80000001be0061c0b300f1
:1025ec0000942000f10207000080fb00000444006e
:1025fc00bac9bf000041780041c0b30090942000dc
:10260c00a40207000080fb00000044000000e00072
:10261c002e003a0010002000000f78000040eb0064
:10262c002047980007003700809320001e004000d0
:10263c00904078002e40900000c068002047980021
:10264c001e0fe800809320001e0040009040780090
:10265c00a0c2b30080cf5000f3ff3a001e0fe80079
:10266c009e0078008093200000804000ae409000d7
:10267c001703070080932000504c8800010037009e
:10268c0000000000b7c9bf0011c0b300b0fe0700c6
:10269c000004e000faff32009580a8002342a80055
:1026ac0021c0b300709b200082fe0700fdfe0700d6
:1026bc000100370000000000b7c9bf0021c0b30003
:1026cc00a3fe0700e14f5000faff32008040eb0000
:1026dc00709b20008afe0700b2ff37000800fa004a
:1026ec00889fbe008a9fbe00200798003107980083
:1026fc00105480006101b8004818dd00c810de00dd
:10270c00810070004810dd002e019000be01900089
:10271c000000510081805900705488008154880059
:10272c0070548000815480000004be004fcdde0048
:10273c008a057800205480008000eb006011b800fe
:10274c000203be000002be000800be000a01be006b
:10275c00cbf707004708de004912dd0000007200cd
:10276c00c710de00491add00810072000001be00b6
:10277c00007d200001002000020040008380480002
:10278c00008fbe001e00be00420620000300200089
:10279c009cf70700000078004f05be004f04be00f8
:1027ac000080fa00000006002800fa00889fbe0096
:1027bc008a9fbe00200f9800310f9800e0538000d4
:1027cc008000eb006011b8000205be000004be00e2
:1027dc008a05780009057800880478000004eb006d
:1027ec00005480006102b8006033b800440f9800b8
:1027fc00550f9800660f9800770f98007054800062
:10280c00815480004f89de00820178000203be00f3
:10281c000002be004e089000de0890006e09900089
:10282c00fe09900096f707004700de00c90add009c
:10283c0000807200c708de00c912dd0081807200c2
:10284c004711de00c91add0002817200c799de0053
:10285c00001f4400019f4c00021f4d00038f4d00d0
:10286c006e00b100d05380008000eb006011b80006
:10287c000205be000004be00cf5ddd004153de004a
:10288c008b0573004f55dd00414bde000a057300cc
:10289c00cf4cdd004143de00890473004f44dd0062
:1028ac00f05380006102b8006033b8000417980040
:1028bc001517980026179800371798007054800049
:1028cc00815480004f89de00820178000203be0033
:1028dc000002be000e1090009e1090002e11900071
:1028ec00be11900066f707004800de00c80add0044
:1028fc0000807200c808de00c812dd008180720002
:10290c004811de00c81add0002817200c899de0091
:10291c000000440081804c0002014d0083814d0079
:10292c0040079800510798006207980073079800b9
:10293c002e089000be0890006011b8004e02900066
:10294c00de0290006e039000fe0390004cf707002f
:10295c000203be000002be00452ade004b34dd003f
:10296c0004027400c532de004b3cdd0085027400ad
:10297c0045bbde00cfbbde003e005200be805a00dd
:10298c003e015b009e815b006e00b1004f00de00db
:10299c00410add0000007200cf08de004112dd00ac
:1029ac0081007200000f9800110f98000e08900023
:1029bc009e0890004f05be004f04be000080fa0038
:1029cc00000006000000fa0081c4b300e0ceb300a2
:1029dc00cc0307000080fa00000006000000fa009b
:1029ec0021c5b300e0ceb300c60307000080fa0097
:1029fc00000006000600fa00200798008e017800ff
:102a0c00320020008040eb00e0ceb300d80307007a
:102a1c000000000000000000000000001e407800d4
:102a2c000080fb008000eb002e0190000089be00ae
:102a3c002e0090001000be004809dd00c801de0029
:102a4c00830171004801dd001e4090000080fb00f6
:102a5c008000eb0000007100818071002e0190005d
:102a6c000089be002e0090001000be004809dd0059
:102a7c00c801de00830171004801dd002e4090008a
:102a8c000080fb008000eb00000071008180710071
:102a9c002e0190000089be000080fa0000000600a4
:102aac000000fa00e1c1b300e0ceb30095030700cb
:102abc000080fa00000006000400fa00100020005c
:102acc00000f78001500370060a820001e004000a1
:102adc00104078008e80e8008101780022002000f0
:102aec0080407800e0ceb300a10307002e40900098
:102afc000080fb00c800dd003e4090000080fb0021
:102b0c00810070001e0078000001400080a72000aa
:102b1c0000004100010878001e0fe8001e0078003c
:102b2c00e60f5000e8ff34000080fa0000000600b9
:102b3c000200fa00000f78001e00780000f0a700d9
:102b4c000000ea000080fa00000006000000fa0015
:102b5c0050462000004088000080fa00000006006b
:102b6c000000fa00004080000000e90000408800ee
:102b7c000080fa00000006000000fa000768ef0071
:102b8c00800c2000010020001040880021408800ab
:102b9c0080ccb30006e8b700fc28ef00fe28ef005d
:102bac000029ef00e9ff07000080fa000000060092
:102bbc000400fa00008fbe00e04780000000e8002f
:102bcc00e0478800e1478000d0032000808f500050
:102bdc0001003a00fc28ef00e24780001e00be0016
:102bec00c211dd0082802000028141000089be00fc
:102bfc000080fa00000006000e00fa00f04780008a
:102c0c00e40f500003003c0020c3b300004f7800d9
:102c1c000e003700f0478000e90f500003003c0025
:102c2c00e0c1b300004f780008003700f047800087
:102c3c00fd0f500003003c0090c1b300004f780022
:102c4c0002003700a0c0b300004f7800e1478000bd
:102c5c001e80fb0000805000100798001e009000a2
:102c6c000000e00003003d001e009000d003b00007
:102c7c00100798001e80fb00c12b2000000178007b
:102c8c00110009008200d800200798001e00900057
:102c9c00c200dd0080802000008040001001be00da
:102cac00e0478000c200dd008080200000804000f2
:102cbc001000be0000015100818159002e009000cf
:102ccc00cf80de00009ab90004027800028bb900b4
:102cdc0086027800050242000010b8000102420092
:102cec00840078003007980041079800300798005e
:102cfc00410798003e009000ce009000370207007c
:102d0c00cf80de0050079800610798005e009000ad
:102d1c00ee00900079005000e08058004201200045
:102d2c000300200037f6070000007800f047880009
:102d3c005e009000ee009000a20020000300200036
:102d4c0030f607000000780010488800104880001a
:102d5c005102070020488800f047800074ff0700ec
:102d6c00004888000080fa00000006000800fa0005
:102d7c00f04780000000e00007003d006000b80054
:102d8c002007980031079800401f20000100200008
:102d9c00008fbe001700370001488000300620006d
:102dac00808f50000400340030062000f04788006b
:102dbc003006200000488800004880008000400059
:102dcc0040df280000804000100078008000eb00fd
:102ddc00008fbe00f047800080004000c0eb280050
:102dec0000804000100078008000eb002007980065
:102dfc003107980007c8bf000004e000160032003d
:102e0c006000b800a10307009e0090002003200082
:102e1c000088b900000178001e0078006000b9003d
:102e2c0000007800000141009e0078002003200083
:102e3c000008b800010141008200780082a923003b
:102e4c0003002000fef50700104088002140880098
:102e5c000768ef001c0037002e009000be009000a9
:102e6c000000400081804800320020000300200058
:102e7c00f3f507008503070010c0b30007e8b7009f
:102e8c009e009000200320000088b900000178000b
:102e9c001e0078006000b9000000780000014100bd
:102eac009e007800200320000008b80001014100ba
:102ebc00820078000271220003002000e0f5070078
:102ecc0010408800214088000080fa0000000600b5
:102edc000400fa00008fbe001e00be0034ff070085
:102eec0006c8bf008080fb008100e900cf08de002f
:102efc00814078000040e90006e8b7000104e000da
:102f0c000a0032003cff070001488000100320003b
:102f1c00808f500003003c0080c0b30006e8b7006f
:102f2c000200370050c0b30006e8b7001040800024
:102f3c00214080000081700002f0a7000201ea002d
:102f4c000201e9004f11de000241780061005000df
:102f5c00e080580010408800214088000204e00006
:102f6c000100320081ff07000080fa00000006001b
:102f7c000000fa00204880000080fa0000000600e3
:102f8c000e00fa0040079800214f98006207980045
:102f9c002e4890000040e90020479800ce00900099
:102fac00010f78006e0090000000e0000600350074
:102fbc001e007800b1c2b300014878006e01900089
:102fcc0022079800060037001e007800d1c2b3001b
:102fdc00014878006e0090000000ea00200798007d
:102fec001e0fe8002e4090000040e900204798009a
:102ffc002e4090000080fb008000400060a3200069
:10300c000080400010007800ae00900000017800b5
:10301c00110009008280d800300798003e00900013
:10302c00e90f50000200360010c0b3001700370043
:10303c003e009000004078000043b00080407800d3
:10304c001e007800014878002e4090000080fb00a4
:10305c008000400060a320000080400090007800b9
:10306c003e0090000088b90000007800ae0090008f
:10307c0000805000200798001e0fe8002e409000a2
:10308c000004e000d7ff3a000040eb000080fa009b
:10309c00000006000a00fa0030079800014f980063
:1030ac00124f98000e4890000040e900204798000d
:1030bc00be009000010f78001e4890000004e00054
:1030cc00060035001e007800b1c2b300014878003c
:1030dc001e49900032479800060037001e00780009
:1030ec00d1c2b300014878001e4890000040ea00ad
:1030fc00304798001e0fe8002e4090000040e90079
:10310c00204798002e4090008080fb0020a32000d8
:10311c000080400010407800be4090008180fb0091
:10312c000080fb0000017800110009008280d800ab
:10313c00404798004e409000e94f50000200360086
:10314c0010c0b300170037004e4090000043b00091
:10315c00804078001e007800014878002e409000d6
:10316c008080fb0020a320000080400010407800ed
:10317c00ce4090008180fb000088b90000007800f0
:10318c0000407800be40900000c0500030479800ce
:10319c001e0fe8002e4090000004e000d6ff3a001d
:1031ac000040eb000080fa00000006001400fa005a
:1031bc0060079800614f9800020f9800130f980059
:1031cc00ee489000214798006e019000020f7800a5
:1031dc000e0990009e099000220798003307980072
:1031ec002e4090000040e900204798002e409000af
:1031fc000080fb00c200dd0000a420000080400025
:10320c001000be000001be002e009000be00900019
:10321c000bf5070040079800510798004e019000ed
:10322c00de0190009000200001002000800f510072
:10323c00818f59000200360010c0b3002200370005
:10324c004e009000004078000043b00080407800b1
:10325c001e007800014878002e4090000080fb0092
:10326c00c200dd0000a42000008040001000be0061
:10327c004e0190000191b90002017800de0190002e
:10328c00009ab9008401780003014100ce0190003e
:10329c000018b80001014100820078002e01900056
:1032ac00be01900000005100818059002007980059
:1032bc00310798001e0fe8002e4090000004e0003b
:1032cc00c7ff3a000040eb000080fa000000060047
:1032dc000800fa002007980061479800ae009000a3
:1032ec00010f78006e4090000080fb004400de006f
:1032fc00204798002e409000e94f50000300360004
:10330c002e4090007043b000020037002e40900019
:10331c000043b0009e007800804878001e0fe80043
:10332c006e4090006f406000204798002e40900047
:10333c00e94f5000030036002e4090007043b0005f
:10334c00020037002e4090000043b0009e00780031
:10335c00804878000080fa00000006001c00fa008b
:10336c00889fbe008a9fbe00000f9800110f980026
:10337c000e0990009e099000f070220001002000c0
:10338c00800f5100818f5900070034000e09900006
:10339c009e09900000122a0071002000800f51003d
:1033ac00818f5900030034000080eb008080eb001b
:1033bc00860037000e0990009e0990004b18dd0026
:1033cc00c510de00810070004b10dd004f89de005f
:1033dc0082017800009fbe000297be0080a52000ed
:1033ec005001be004000be00000240008182480037
:1033fc0002034900838349000400be000601be009d
:10340c003e024000be8248003e0349009e834900b4
:10341c006e00b10000a620005001be004000be00ae
:10342c000000420081804a0002014b0083814b0066
:10343c000203be000002be00c43bdd004c34de00c3
:10344c00870374004433dd004c2cde00060374004b
:10345c00c42add004c24de00850274004422dd0009
:10346c00240f9800350f9800460f9800570f9800be
:10347c0080a620005001be004000be0014de2000db
:10348c00050020006033b8007df407002e0a900080
:10349c00be0a90004e0b9000de0b90000004420020
:1034ac0081844a0002054b0083854b0000a7200055
:1034bc005001be004000be00f49d2f00f5ff2f0010
:1034cc00f6ff2f00f7ff2f006df4070000004400fb
:1034dc0081804c0002014d0083814d004007980013
:1034ec0051079800620798007307980080a5200088
:1034fc005001be004000be0004a62000009abe0091
:10350c000292be0080a520003e02be002e03be002b
:10351c000498be000690be0080a620005001be009c
:10352c004000be0004a72000009abe000292be001c
:10353c004e009000de0090006e019000fe019000a5
:10354c00e00f5000e08f5800e00f5900e08f590059
:10355c0007003d00f47f2000050020006033b80018
:10356c00040040008580480006014900878149001d
:10357c004b00de00c50add0000807200cb08de00c7
:10358c00c512dd00818072004b11de00c51add0012
:10359c0002817200cb99de0084a62000009abe0046
:1035ac000292be0080a620005001be004000be006a
:1035bc004b00de00450bdd0000007300cb08de0085
:1035cc004513dd00810073000000be004f05be00f6
:1035dc004f04be000080fa00000006000800fa004c
:1035ec002007980031079800c2548000d354800003
:1035fc002e009000be009000020040008380480026
:10360c00920420000289b900020278006001b9001e
:10361c000201780002024200920420000201b8006c
:10362c000302420084017800a0548000b154800051
:10363c0064352000048ab900040278006003b900e4
:10364c008602780005024200653520000500b800ae
:10365c000102420084007800001f410001974900dc
:10366c002e019000be019000c2548800d3548800f3
:10367c001e00be00823e200003002000e1f3070084
:10368c00a0548800b1548800a0548000b15480002c
:10369c000080fa00000006000200fa00000f78001b
:1036ac00905480009e004000905480004280de00c8
:1036bc000080500090548800905480004280de00be
:1036cc000080fa00000006000000fa000422ef005f
:1036dc0007e2a8000080fa00000006000000fa00d3
:1036ec000602a8000000000030108000610060009d
:1036fc000000e000fcff3a000080fa000000060029
:10370c000000fa000622a800000000003010800023
:10371c00620060000000e000fcff3a000080fa004c
:10372c00000006000000fa000642a800000000009d
:10373c0030108000640060000000e000fcff3a00e4
:10374c000080fa00000006000200fa00004f78002a
:10375c001e80fb001010880000000000411080004b
:10376c0000002400008060000000e000fbff3a0035
:10377c000080fa00000006000400fa0020479800c0
:10378c0000000000301080007f0060000000e000ae
:10379c00fcff3a000662a800000000004010800008
:1037ac00620060000000e000fcff320000108000ae
:1037bc00004f780000000000301080007f00600097
:1037cc000000e000fcff3a002e40900061406000d9
:1037dc000080fb00610060004500dd0032108000bd
:1037ec00f1fd2f0081006100010070003010880095
:1037fc000682a800000000003010800070006000fd
:10380c000000e000fcff3a001e4078000080fa0047
:10381c00000006000800fa002047980021079800d5
:10382c0032079800adff07002e4090000004a00066
:10383c00c5ff07000000eb00000f78000800370000
:10384c000040eb00ccff0700ae00900080487800f1
:10385c002e0090000000e800200798001e0fe800e2
:10386c003e0090000000e9009e0f5000f4ff3e0067
:10387c0010c0b300c0ff0700ae0090008048780075
:10388c00a8ff07000080fa00000006000800fa00fc
:10389c0020479800210798003207980098ff0700ee
:1038ac002e4090000004a000a7ff07000000eb00d2
:1038bc00000f7800080037000040eb00aeff070057
:1038cc00ae009000804878002e0090000000e800c8
:1038dc00200798001e0fe8003e0090000000e90051
:1038ec009e0f5000f4ff3e0010c0b300a2ff070073
:1038fc00ae009000804878008aff07000080fa0034
:10390c00000006000200fa00004f780011479800f2
:10391c0072ff0700e0cfb3001e4060008aff070073
:10392c001e40900088ff07007eff07000080fa0011
:10393c00000006000400fa00004f780011479800c0
:10394c002247980065ff0700e0cfb3001e406000df
:10395c007dff07001e4090007bff07002e4090006b
:10396c0079ff07006fff07000080fa0000000600d7
:10397c000600fa00004f78001147980012079800d3
:10398c00230798009e4090001e407800ddff070042
:10399c001e00900000017800ae0090001e407800e0
:1039ac009cff07000080fa00000006000200fa00ed
:1039bc00004f78001147980048ff0700e0cfb30094
:1039cc001e40600060ff07001e4090005eff070075
:1039dc000080fa00000006000600fa00004f780094
:1039ec001147980012079800230798009e409000fa
:1039fc001e407800edff07001e00900000017800cb
:103a0c00ae0090001e407800a0ff07000080fa0076
:103a1c00000006000000fa00c262a80000000000ce
:103a2c00000000000000000000000000000000008a
:103a3c00c242a800000000000000000000000000ce
:103a4c00000000000000000030c0b3009ceab7008a
:103a5c000080fa00000006000000fa00c262a80014
:103a6c00000000000000000000000000000000004a
:103a7c0000000000c242a90000000000000000008d
:103a8c0000000000000000000000000020c0b30097
:103a9c009ceab7000080fa00000006000000fa0063
:103aac00c262a9000000000000000000000000003d
:103abc000000000000000000c242a800000000004e
:103acc0000000000000000000000000000000000ea
:103adc0010c0b3009ceab7000080fa00000006009a
:103aec000000fa00c262a900000000000000000003
:103afc00000000000000000000000000c242a9000d
:103b0c0000000000000000000000000000000000a9
:103b1c00000000009c6aef000080fa000000060024
:103b2c000000fa009ccabf000080fb00e10f5000af
:103b3c000c003200e10f500003003c000000e000dc
:103b4c00060032000d003700e20f50000700320073
:103b5c00e30f50000700320008003700cfff0700ca
:103b6c0007003700bcff070005003700a9ff07005e
:103b7c0003003700daff07000100370000000000e7
:103b8c000080fa00000006000000fa009ccabf008a
:103b9c000080fb00e10f50000c003200e10f5000e0
:103bac0003003c000000e000060032000d0037006e
:103bbc00e20f500007003200e30f50000700320004
:103bcc000800370093ff070007003700c4ff070009
:103bdc0005003700b1ff0700030037009eff070008
:103bec0001003700000000000080fa000000060011
:103bfc000200fa00004f78001e80fb00e10f50001d
:103c0c000c003200e10f500003003c000000e0000b
:103c1c00060032000d003700e20f500007003200a2
:103c2c00e30f50000700320008003700acff07001c
:103c3c000700370099ff07000500370086ff0700d3
:103c4c000300370073ff070001003700000000007d
:103c5c000080fa00000006000000fa008461a90050
:103c6c0085a1a90000000000000000000000000079
:103c7c0000000000000000003106a9008640a900e9
:103c8c0097ff07000080fa00000006000600fa000b
:103c9c001007980021079800200c80000000a1005c
:103cac000010a1000020a100200c88008c0207004d
:103cbc001e009000ae009000e00f5000e08f580006
:103ccc00100032001e019000ae01900040422f0007
:103cdc00010020005af20700000f78001e00780047
:103cec000000d100000c88001e007800750207004f
:103cfc00200c80000000a1000010a0000020a000fb
:103d0c00200c88000080fa00000006000000fa0079
:103d1c009ccabf000080fa00000006000000fa00f8
:103d2c006960a900c9e2a8000080fa000000060042
:103d3c000000fa00f9ff07008660a9006160a80086
:103d4c006005800000c0a10000d0a00000e0a10030
:103d5c00600588009660a8000080fa00000006004c
:103d6c000000fa008089200001002000c7ff070036
:103d7c00000a2000010020007f020700c044200040
:103d8c0001002000c1ff0700000a200001002000f4
:103d9c0079020700c00d200001002000bbff0700c6
:103dac00000a200001002000730207006000b80028
:103dbc00b6ff07000080fa00000006000000fa00c1
:103dcc00c00d200001002000b0ff0700000a2000f9
:103ddc000100200068020700c04420000100200000
:103dec00aaff0700000a2000010020006202070061
:103dfc008089200001002000a4ff0700000a200099
:103e0c00010020005c0207006000b8009fff070063
:103e1c000080fa00000006000000fa00c00d20002f
:103e2c000100200099ff070040062000010020003f
:103e3c00510207006000b80094ff07004006200004
:103e4c00010020004c020700c00d200001002000e2
:103e5c008eff0700400620000100200046020700ec
:103e6c006000b80089ff0700400620000100200018
:103e7c0041020700c00d20000100200083ff070055
:103e8c0040062000010020003b0207006000b80043
:103e9c007eff07000080fa00000006000000fa0018
:103eac009aff07000004e00004003a001cff070022
:103ebc00abff070034ff070001003700a8ff070025
:103ecc00da010700060207000000000002012000d2
:103edc00c1ff2800e09f200034f20700e09f200083
:103eec008d0207008016200001002000220207002e
:103efc009660a8006160a8009e6aef000040fe007a
:103f0c00000000000080fa00000006000000fa002b
:103f1c0022012000c1002900e09f200023f20700ad
:103f2c00e09f20007c02070078ff07000004e000ff
:103f3c0004003a00fafe0700a0ff070012ff07007a
:103f4c00010037009dff0700a4fa0700b000200015
:103f5c00010020009701070007fb070010c0b30009
:103f6c009eeab7009680a8000080fa0000000600c8
:103f7c003600f800809fbe00829fbe00849fbe006a
:103f8c00869fbe000000fa008660a9006160a9004f
:103f9c005116800000002800008060000000e00046
:103fac0015003a00ed00070030eab70030cabf0038
:103fbc000004e00007003a009ecabf00e14f500029
:103fcc0004003a00d6fe070093ff0700dffa070053
:103fdc00090037009ecabf00e14f500004003a00b0
:103fec00e9fe070011010700acff070002003700d3
:103ffc0017010700c5ff07006160a8000080fa00e8
:10400c004f03be004f02be004f01be004f00be006a
:08401c003600f9000040060027
:020000040000fa
:1040240006090000c000000000000000c6090000ee
:104034003800000002000000b80100000000000089
:104044000000ba000200000000000000009302001b
:1040540000000000000000004b02000000580200b5
:1040640000002800000000005802000000280000a2
:1040740000005800020000002800000000b0040006
:1040840000000000860a00000c000000020000008e
:1040940000a2a400a6a8aa00ac00440000000000ee
:1040a400780a00000e000000000000009c0a0000d6
:1040b4000200000000000000580a00002000000078
:1040c4000200000000c2eb000b0000000000000032
:1040d400c2eb0b00000000000000c200eb0b00006c
:1040e4000000000000c2eb000b0000000000000014
:1040f400920a00000a00000000000000000800000e
:104104000601000000000000fe0900003400000069
:10411400000000009e0a00000200000002000000ef
:1041240001000000320a0000260000000200000026
:10413400010a6400000100000a00640000e80300b2
:1041440010270100000000000a00000000640000c5
:104154000000e800030000001027000000a0860013
:1041640001000000a00a0000ca00000002000000d4
:1041740030313200333435003637380039414200ab
:1041840043444500460030003132330034353600b4
:1041940037383900616263006465660000286e0088
:1041a400756c6c0029000000010000000000000094
:1041b40000000a000000000000000000006400008d
:1041c4000000000000000000e80300000000000000
:1041d40000001000270000000000000000a086007e
:1041e400010000000000000040420f000000000039
:1041f4000000800096980000000000000000e1002c
:10420400f50500000000000000ca9a003b00000011
:1042140000000000e40b5400020000000000e8006d
:1042240076481700000000000010a500d4e8000044
:1042340000000000a0724e001809000000004000b9
:104244007a10f3005a0000000080c600a47e8d009e
:104254000300000000c16f00f2862300000000008c
:104264008a5d78004563010000006400a7b3b600ce
:10427400e00d000000e889000423c7008a00000064
:104284006a0b00002600000002000000910b0000f1
:1042940000910b000900000000020000930b0000d5
:1042a40000930b000e02010000000000000000005b
:1042b4000000000006020200000000006a0b00007b
:1042c400900b00000600000000000000960b0000a8
:1042d400020000000200000001000000ba24800077
:020000040000fa
:1042e4000200fa008e01780012002000a1c2b3007f
:1042f400a0c3b300bafd07009e407800e0cfb3002e
:1043040000c06000004f78001e4078000041780033
:10431400a1c2b300a0c3b30088fd07000080fa0067
:10432400000006000200fa008e017800120020004e
:10433400a1c2b300a0c3b300a9fd07001e407800ca
:104344000004a000004f78001e407800004178006f
:10435400a1c2b300a0c3b30078fd07000080fa0037
:10436400000006000c00fa000040eb00004f78004b
:104374000e00e800800178001200200021c2b30082
:10438400a0c3b30096fd07001e4090000080fb0010
:10439400680060004380de00004078001047980009
:1043a4001e4090000080fa00000006003400fa006d
:1043b4000040eb00004f78008e01780012002000ce
:1043c400d1c0b300a0c3b30085fd07009e407800b0
:1043d400a0c2b30080cf500005003a000e00e800f0
:1043e40022012000e1fc2800f2f00700040037005d
:1043f4000e00e800c201200001fe2800edf00700d5
:104404000e00e800460107000080fa0000000600e4
:104414000000fa00b2ff070002c1b30011c2b300ea
:10442400a0c3b30045fd0700beff07000080fa00eb
:10443400000006000000fa00a9ff070002c2b30052
:1044440011c2b300a0c3b3003cfd0700b5ff0700d1
:104454000080fa00000006000000fa00a0ff070038
:1044640002c3b30011c2b300a0c3b30033fd0700fd
:10447400acff07000080fa00000006000200fa000a
:1044840097ff0700c9ff07008e0178001200200083
:10449400a1c2b300a0c3b30051fd07009e40780041
:1044a40070ccb30000c0600000417800a1c2b3002a
:1044b400a0c3b30021fd07008e0178001200200084
:1044c400a1c2b300a0c3b30045fd07001e4078009d
:1044d4000044a00000417800a1c2b300a0c3b3000f
:1044e40016fd070022c0b300e1c0b300a0c3b300af
:1044f40012fd070002c3b30011c2b300a0c3b3008e
:104504000efd0700e2c7b30051c2b300a0c3b3005d
:104514000afd070082c0b30061c2b300a0c3b300a8
:1045240006fd070002c3b30071c2b300a0c3b30009
:1045340002fd070082c7b30081c2b300a0c3b30069
:10454400fefc070082c0b300d1c2b300a0c3b30015
:10455400fafc070082c0b300e1c2b300a0c3b300f9
:10456400f6fc07006fff07000080fa000000060059
:104574000000fa0005e1a9000421a90004c1a90072
:1045840005a1a90004a1a9000481a8000080eb00f2
:10459400100888000021ef008460a9002005800035
:1045a40000c0a10000d0a00000e0a1002005880008
:1045b4009460a9000080fa00000006000400fa00dc
:1045c400008fbe0005e1a9009e00900000122a00a1
:1045d4000088b900000178001e0078006700b90067
:1045e40000007800000141009e00780000122a00bb
:1045f4000008b80001014100820078000271220025
:104604000300200010f007004d09dd004300de0028
:1046140000007100c308de00000078001008880064
:104624000021ef0005e1a8009460a8000080fa00d2
:10463400000006000000fa0005e1a9000021ef00d7
:104644009460a9000080fa00000006003600f8001b
:10465400809fbe00829fbe00849fbe00869fbe00d6
:104664000000fa008460a90023f707000080fa0024
:104674004f03be004f02be004f01be004f00be00fc
:104684003600f900004006000000fa001061a9009d
:104694001021a90010c1a90011a1a90010a1a9000d
:1046a4001081a8003005800000c0a00000d0a10047
:1046b40000e0a1003005880011e1a9000621ef0007
:1046c40094e0a9000080fa00000006000200fa004d
:1046d400000f78009e0078006108880011e1a800ae
:1046e4000080fa00000006000000fa0011e1a900b1
:1046f4000621ef000080fa00000006000000fa0026
:104704001061a9001221a90012c1a90013a1a900d6
:1047140012a1a8001281a800400580000000a0009a
:104724000010a1000020a1004005880013e1a900a9
:104734000a21ef009500a9000080fa00000006009d
:104744000000fa0013e1a9000a21ef0013e1a80018
:104754000080fa00000006000000fa005008800003
:104764000080fa00000006000000fa0013e1a9002e
:104774000a21ef009500a9000080fa00000006005d
:104784000400fa00008fbe00edff070001003700af
:1047940000000000f0ff07008000eb00be0f500097
:1047a400ae8f5800faff3900efff07000080fa00cf
:1047b400000006000200fa00c0002000c0118800ba
:1047c4003062a80031e2a8003162a80080118000a4
:1047d4000010a1000020a100801188003002a9006f
:1047e40002003700b0118000004f78009011800063
:1047f400610060000000e000faff3a0087c0a900f1
:1048040087e0a900900580000080a0000090a1002e
:1048140000a0a100900588009005800000c0a100c0
:1048240000d0a00000e0a1009005880097c0a90076
:1048340097e0a9003342a8000080fa0000000600b7
:104844000200fa00c0002000401188002062a80085
:1048540021e2a8002162a800001180000010a1003c
:104864000020a100001188002002a90002003700e6
:1048740030118000004f780010118000610060004a
:104884000000e000faff3a008560a9008580a900d5
:104894004005800000c0a00000d0a10000e0a100fd
:1048a40040058800500580000000a0000010a10011
:1048b4000020a100500588009560a9009580a900fa
:1048c4002342a90023a2a80023e2a9000080fa0041
:1048d400000006003600f800809fbe00829fbe00e4
:1048e400849fbe00869fbe003400f80000002000b4
:1048f400a00188000000fa008580a9006bf607007b
:104904000080fa003400f9004f03be004f02be00dd
:104914004f01be004f00be003600f9000040060003
:104924000200fa00000f78000b0037001e00780028
:10493400104078000000fb00a01188001e0fe80062
:104944000000000091118000001020000080600031
:104954000000e000fbff32001e00780010407800e9
:104964000004e000f1ff3a000080fa0000000600b5
:020000040000fa
:04497400000000003f
:020000040000fa
:0200000401f009
:04000000ffff0000fe
:020000040000fa
:0200000401f009
:04000800ffff0000f6
:020000040000fa
:0200000401f009
:04000c007fff000072
:020000040000fa
:0200000401f009
:0400100073ff00007a
:020000040000fa
:0200000401f009
:040014007fff00006a
:020000040000fa
:0200000401f009
:04001800f7ff0000ee
:020000040000fa
:0200000401f009
:04001c00fdff0000e4
:020000040000fa
:0200000401f009
:0400200000ff0000dd
:00000001FF
